{"contracts/DAOGateway.sol":{"DAOGateway":{"abi":[{"inputs":[],"stateMutability":"nonpayable","type":"constructor"},{"inputs":[{"internalType":"uint256","name":"index","type":"uint256"}],"name":"getReferences","outputs":[{"internalType":"uint256[]","name":"refs","type":"uint256[]"}],"stateMutability":"view","type":"function"},{"inputs":[{"internalType":"uint256","name":"childIndex","type":"uint256"},{"internalType":"uint256","name":"parentIndex","type":"uint256"}],"name":"linkDocument","outputs":[],"stateMutability":"nonpayable","type":"function"},{"inputs":[{"components":[{"internalType":"string","name":"contents","type":"string"},{"internalType":"uint256[]","name":"references","type":"uint256[]"}],"internalType":"struct DAOGateway.Document","name":"doc","type":"tuple"},{"internalType":"uint256","name":"parentIndex","type":"uint256"}],"name":"publishDocument","outputs":[],"stateMutability":"nonpayable","type":"function"},{"inputs":[{"internalType":"uint256","name":"index","type":"uint256"}],"name":"readDocument","outputs":[{"internalType":"string","name":"text","type":"string"}],"stateMutability":"view","type":"function"}],"evm":{"bytecode":{"linkReferences":{},"object":"6080604052348015600f57600080fd5b50336000806101000a81548173ffffffffffffffffffffffffffffffffffffffff021916908373ffffffffffffffffffffffffffffffffffffffff160217905550610e1a8061005f6000396000f3fe608060405234801561001057600080fd5b506004361061004c5760003560e01c80633cfc7ae2146100515780636685f12c1461008157806366ed35e5146100b1578063ac5ebbd0146100cd575b600080fd5b61006b60048036038101906100669190610463565b6100e9565b604051610078919061054e565b60405180910390f35b61009b60048036038101906100969190610463565b610166565b6040516100a89190610600565b60405180910390f35b6100cb60048036038101906100c69190610646565b61021d565b005b6100e760048036038101906100e291906106a2565b610345565b005b6060600182815481106100ff576100fe6106e2565b5b906000526020600020906002020160010180548060200260200160405190810160405280929190818152602001828054801561015a57602002820191906000526020600020905b815481526020019060010190808311610146575b50505050509050919050565b60606001828154811061017c5761017b6106e2565b5b9060005260206000209060020201600001805461019890610740565b80601f01602080910402602001604051908101604052809291908181526020018280546101c490610740565b80156102115780601f106101e657610100808354040283529160200191610211565b820191906000526020600020905b8154815290600101906020018083116101f457829003601f168201915b50505050509050919050565b60008054906101000a900473ffffffffffffffffffffffffffffffffffffffff1673ffffffffffffffffffffffffffffffffffffffff163373ffffffffffffffffffffffffffffffffffffffff16146102ab576040517f08c379a00000000000000000000000000000000000000000000000000000000081526004016102a2906107e3565b60405180910390fd5b600182908060018154018082558091505060019003906000526020600020906002020160009091909190915081816102e39190610da2565b5050600181815481106102f9576102f86106e2565b5b90600052602060002090600202016001016001808054905061031b9190610db0565b90806001815401808255809150506001900390600052602060002001600090919091909150555050565b60008054906101000a900473ffffffffffffffffffffffffffffffffffffffff1673ffffffffffffffffffffffffffffffffffffffff163373ffffffffffffffffffffffffffffffffffffffff16146103d3576040517f08c379a00000000000000000000000000000000000000000000000000000000081526004016103ca906107e3565b60405180910390fd5b600181815481106103e7576103e66106e2565b5b90600052602060002090600202016001018290806001815401808255809150506001900390600052602060002001600090919091909150555050565b600080fd5b600080fd5b6000819050919050565b6104408161042d565b811461044b57600080fd5b50565b60008135905061045d81610437565b92915050565b60006020828403121561047957610478610423565b5b60006104878482850161044e565b91505092915050565b600081519050919050565b600082825260208201905092915050565b6000819050602082019050919050565b6104c58161042d565b82525050565b60006104d783836104bc565b60208301905092915050565b6000602082019050919050565b60006104fb82610490565b610505818561049b565b9350610510836104ac565b8060005b8381101561054157815161052888826104cb565b9750610533836104e3565b925050600181019050610514565b5085935050505092915050565b6000602082019050818103600083015261056881846104f0565b905092915050565b600081519050919050565b600082825260208201905092915050565b60005b838110156105aa57808201518184015260208101905061058f565b60008484015250505050565b6000601f19601f8301169050919050565b60006105d282610570565b6105dc818561057b565b93506105ec81856020860161058c565b6105f5816105b6565b840191505092915050565b6000602082019050818103600083015261061a81846105c7565b905092915050565b600080fd5b60006040828403121561063d5761063c610622565b5b81905092915050565b6000806040838503121561065d5761065c610423565b5b600083013567ffffffffffffffff81111561067b5761067a610428565b5b61068785828601610627565b92505060206106988582860161044e565b9150509250929050565b600080604083850312156106b9576106b8610423565b5b60006106c78582860161044e565b92505060206106d88582860161044e565b9150509250929050565b7f4e487b7100000000000000000000000000000000000000000000000000000000600052603260045260246000fd5b7f4e487b7100000000000000000000000000000000000000000000000000000000600052602260045260246000fd5b6000600282049050600182168061075857607f821691505b60208210810361076b5761076a610711565b5b50919050565b7f4f6e6c79207468652044414f20636f6e74726163742063616e207075626c697360008201527f68206e657720646f63756d656e74732e00000000000000000000000000000000602082015250565b60006107cd60308361057b565b91506107d882610771565b604082019050919050565b600060208201905081810360008301526107fc816107c0565b9050919050565b600080fd5b600080fd5b600080fd5b6000808335600160200384360303811261082f5761082e610803565b5b80840192508235915067ffffffffffffffff82111561085157610850610808565b5b60208301925060018202360383131561086d5761086c61080d565b5b509250929050565b600082905092915050565b7f4e487b7100000000000000000000000000000000000000000000000000000000600052604160045260246000fd5b60008190508160005260206000209050919050565b60006020601f8301049050919050565b600082821b905092915050565b6000600883026109117fffffffffffffffffffffffffffffffffffffffffffffffffffffffffffffffff826108d4565b61091b86836108d4565b95508019841693508086168417925050509392505050565b6000819050919050565b600061095861095361094e8461042d565b610933565b61042d565b9050919050565b6000819050919050565b6109728361093d565b61098661097e8261095f565b8484546108e1565b825550505050565b600090565b61099b61098e565b6109a6818484610969565b505050565b5b818110156109ca576109bf600082610993565b6001810190506109ac565b5050565b601f821115610a0f576109e0816108af565b6109e9846108c4565b810160208510156109f8578190505b610a0c610a04856108c4565b8301826109ab565b50505b505050565b600082821c905092915050565b6000610a3260001984600802610a14565b1980831691505092915050565b6000610a4b8383610a21565b9150826002028217905092915050565b610a658383610875565b67ffffffffffffffff811115610a7e57610a7d610880565b5b610a888254610740565b610a938282856109ce565b6000601f831160018114610ac25760008415610ab0578287013590505b610aba8582610a3f565b865550610b22565b601f198416610ad0866108af565b60005b82811015610af857848901358255600182019150602085019450602081019050610ad3565b86831015610b155784890135610b11601f891682610a21565b8355505b6001600288020188555050505b50505050505050565b610b36838383610a5b565b505050565b60008083356001602003843603038112610b5857610b57610803565b5b80840192508235915067ffffffffffffffff821115610b7a57610b79610808565b5b602083019250602082023603831315610b9657610b9561080d565b5b509250929050565b600081549050919050565b7f4e487b7100000000000000000000000000000000000000000000000000000000600052601160045260246000fd5b60008190506001806001038301049050919050565b60008190508160005260206000209050919050565b5b81811015610c2157610c16600082610993565b600181019050610c03565b5050565b81831015610c5e57610c3682610bd8565b610c3f84610bd8565b610c4883610bed565b818101838201610c588183610c02565b50505050505b505050565b68010000000000000000821115610c7d57610c7c610880565b5b610c8681610b9e565b828255610c94838284610c25565b505050565b600082905092915050565b60008135610cb181610437565b80915050919050565b6000819050919050565b610cce8383610c99565b67ffffffffffffffff811115610ce757610ce6610880565b5b610cf18183610c63565b610cfa83610cba565b610d0383610bed565b6001830460005b81811015610d42576000610d1d85610ca4565b610d268161095f565b8092506020870196505050808285015550600181019050610d0a565b5050505050505050565b610d57838383610cc4565b505050565b6000810160008301610d6e8185610812565b610d79818386610b2b565b505050506001810160208301610d8f8185610b3b565b610d9a818386610d4c565b505050505050565b610dac8282610d5c565b5050565b6000610dbb8261042d565b9150610dc68361042d565b9250828203905081811115610dde57610ddd610ba9565b5b9291505056fea26469706673582212202e4707dc9f66fcc81492802fc0c41cef4b1645980b6eb7191ff12693f89d793064736f6c634300081c0033","opcodes":"PUSH1 0x80 PUSH1 0x40 MSTORE CALLVALUE DUP1 ISZERO PUSH1 0xF JUMPI PUSH1 0x0 DUP1 REVERT JUMPDEST POP CALLER PUSH1 0x0 DUP1 PUSH2 0x100 EXP DUP2 SLOAD DUP2 PUSH20 0xFFFFFFFFFFFFFFFFFFFFFFFFFFFFFFFFFFFFFFFF MUL NOT AND SWAP1 DUP4 PUSH20 0xFFFFFFFFFFFFFFFFFFFFFFFFFFFFFFFFFFFFFFFF AND MUL OR SWAP1 SSTORE POP PUSH2 0xE1A DUP1 PUSH2 0x5F PUSH1 0x0 CODECOPY PUSH1 0x0 RETURN INVALID PUSH1 0x80 PUSH1 0x40 MSTORE CALLVALUE DUP1 ISZERO PUSH2 0x10 JUMPI PUSH1 0x0 DUP1 REVERT JUMPDEST POP PUSH1 0x4 CALLDATASIZE LT PUSH2 0x4C JUMPI PUSH1 0x0 CALLDATALOAD PUSH1 0xE0 SHR DUP1 PUSH4 0x3CFC7AE2 EQ PUSH2 0x51 JUMPI DUP1 PUSH4 0x6685F12C EQ PUSH2 0x81 JUMPI DUP1 PUSH4 0x66ED35E5 EQ PUSH2 0xB1 JUMPI DUP1 PUSH4 0xAC5EBBD0 EQ PUSH2 0xCD JUMPI JUMPDEST PUSH1 0x0 DUP1 REVERT JUMPDEST PUSH2 0x6B PUSH1 0x4 DUP1 CALLDATASIZE SUB DUP2 ADD SWAP1 PUSH2 0x66 SWAP2 SWAP1 PUSH2 0x463 JUMP JUMPDEST PUSH2 0xE9 JUMP JUMPDEST PUSH1 0x40 MLOAD PUSH2 0x78 SWAP2 SWAP1 PUSH2 0x54E JUMP JUMPDEST PUSH1 0x40 MLOAD DUP1 SWAP2 SUB SWAP1 RETURN JUMPDEST PUSH2 0x9B PUSH1 0x4 DUP1 CALLDATASIZE SUB DUP2 ADD SWAP1 PUSH2 0x96 SWAP2 SWAP1 PUSH2 0x463 JUMP JUMPDEST PUSH2 0x166 JUMP JUMPDEST PUSH1 0x40 MLOAD PUSH2 0xA8 SWAP2 SWAP1 PUSH2 0x600 JUMP JUMPDEST PUSH1 0x40 MLOAD DUP1 SWAP2 SUB SWAP1 RETURN JUMPDEST PUSH2 0xCB PUSH1 0x4 DUP1 CALLDATASIZE SUB DUP2 ADD SWAP1 PUSH2 0xC6 SWAP2 SWAP1 PUSH2 0x646 JUMP JUMPDEST PUSH2 0x21D JUMP JUMPDEST STOP JUMPDEST PUSH2 0xE7 PUSH1 0x4 DUP1 CALLDATASIZE SUB DUP2 ADD SWAP1 PUSH2 0xE2 SWAP2 SWAP1 PUSH2 0x6A2 JUMP JUMPDEST PUSH2 0x345 JUMP JUMPDEST STOP JUMPDEST PUSH1 0x60 PUSH1 0x1 DUP3 DUP2 SLOAD DUP2 LT PUSH2 0xFF JUMPI PUSH2 0xFE PUSH2 0x6E2 JUMP JUMPDEST JUMPDEST SWAP1 PUSH1 0x0 MSTORE PUSH1 0x20 PUSH1 0x0 KECCAK256 SWAP1 PUSH1 0x2 MUL ADD PUSH1 0x1 ADD DUP1 SLOAD DUP1 PUSH1 0x20 MUL PUSH1 0x20 ADD PUSH1 0x40 MLOAD SWAP1 DUP2 ADD PUSH1 0x40 MSTORE DUP1 SWAP3 SWAP2 SWAP1 DUP2 DUP2 MSTORE PUSH1 0x20 ADD DUP3 DUP1 SLOAD DUP1 ISZERO PUSH2 0x15A JUMPI PUSH1 0x20 MUL DUP3 ADD SWAP2 SWAP1 PUSH1 0x0 MSTORE PUSH1 0x20 PUSH1 0x0 KECCAK256 SWAP1 JUMPDEST DUP2 SLOAD DUP2 MSTORE PUSH1 0x20 ADD SWAP1 PUSH1 0x1 ADD SWAP1 DUP1 DUP4 GT PUSH2 0x146 JUMPI JUMPDEST POP POP POP POP POP SWAP1 POP SWAP2 SWAP1 POP JUMP JUMPDEST PUSH1 0x60 PUSH1 0x1 DUP3 DUP2 SLOAD DUP2 LT PUSH2 0x17C JUMPI PUSH2 0x17B PUSH2 0x6E2 JUMP JUMPDEST JUMPDEST SWAP1 PUSH1 0x0 MSTORE PUSH1 0x20 PUSH1 0x0 KECCAK256 SWAP1 PUSH1 0x2 MUL ADD PUSH1 0x0 ADD DUP1 SLOAD PUSH2 0x198 SWAP1 PUSH2 0x740 JUMP JUMPDEST DUP1 PUSH1 0x1F ADD PUSH1 0x20 DUP1 SWAP2 DIV MUL PUSH1 0x20 ADD PUSH1 0x40 MLOAD SWAP1 DUP2 ADD PUSH1 0x40 MSTORE DUP1 SWAP3 SWAP2 SWAP1 DUP2 DUP2 MSTORE PUSH1 0x20 ADD DUP3 DUP1 SLOAD PUSH2 0x1C4 SWAP1 PUSH2 0x740 JUMP JUMPDEST DUP1 ISZERO PUSH2 0x211 JUMPI DUP1 PUSH1 0x1F LT PUSH2 0x1E6 JUMPI PUSH2 0x100 DUP1 DUP4 SLOAD DIV MUL DUP4 MSTORE SWAP2 PUSH1 0x20 ADD SWAP2 PUSH2 0x211 JUMP JUMPDEST DUP3 ADD SWAP2 SWAP1 PUSH1 0x0 MSTORE PUSH1 0x20 PUSH1 0x0 KECCAK256 SWAP1 JUMPDEST DUP2 SLOAD DUP2 MSTORE SWAP1 PUSH1 0x1 ADD SWAP1 PUSH1 0x20 ADD DUP1 DUP4 GT PUSH2 0x1F4 JUMPI DUP3 SWAP1 SUB PUSH1 0x1F AND DUP3 ADD SWAP2 JUMPDEST POP POP POP POP POP SWAP1 POP SWAP2 SWAP1 POP JUMP JUMPDEST PUSH1 0x0 DUP1 SLOAD SWAP1 PUSH2 0x100 EXP SWAP1 DIV PUSH20 0xFFFFFFFFFFFFFFFFFFFFFFFFFFFFFFFFFFFFFFFF AND PUSH20 0xFFFFFFFFFFFFFFFFFFFFFFFFFFFFFFFFFFFFFFFF AND CALLER PUSH20 0xFFFFFFFFFFFFFFFFFFFFFFFFFFFFFFFFFFFFFFFF AND EQ PUSH2 0x2AB JUMPI PUSH1 0x40 MLOAD PUSH32 0x8C379A000000000000000000000000000000000000000000000000000000000 DUP2 MSTORE PUSH1 0x4 ADD PUSH2 0x2A2 SWAP1 PUSH2 0x7E3 JUMP JUMPDEST PUSH1 0x40 MLOAD DUP1 SWAP2 SUB SWAP1 REVERT JUMPDEST PUSH1 0x1 DUP3 SWAP1 DUP1 PUSH1 0x1 DUP2 SLOAD ADD DUP1 DUP3 SSTORE DUP1 SWAP2 POP POP PUSH1 0x1 SWAP1 SUB SWAP1 PUSH1 0x0 MSTORE PUSH1 0x20 PUSH1 0x0 KECCAK256 SWAP1 PUSH1 0x2 MUL ADD PUSH1 0x0 SWAP1 SWAP2 SWAP1 SWAP2 SWAP1 SWAP2 POP DUP2 DUP2 PUSH2 0x2E3 SWAP2 SWAP1 PUSH2 0xDA2 JUMP JUMPDEST POP POP PUSH1 0x1 DUP2 DUP2 SLOAD DUP2 LT PUSH2 0x2F9 JUMPI PUSH2 0x2F8 PUSH2 0x6E2 JUMP JUMPDEST JUMPDEST SWAP1 PUSH1 0x0 MSTORE PUSH1 0x20 PUSH1 0x0 KECCAK256 SWAP1 PUSH1 0x2 MUL ADD PUSH1 0x1 ADD PUSH1 0x1 DUP1 DUP1 SLOAD SWAP1 POP PUSH2 0x31B SWAP2 SWAP1 PUSH2 0xDB0 JUMP JUMPDEST SWAP1 DUP1 PUSH1 0x1 DUP2 SLOAD ADD DUP1 DUP3 SSTORE DUP1 SWAP2 POP POP PUSH1 0x1 SWAP1 SUB SWAP1 PUSH1 0x0 MSTORE PUSH1 0x20 PUSH1 0x0 KECCAK256 ADD PUSH1 0x0 SWAP1 SWAP2 SWAP1 SWAP2 SWAP1 SWAP2 POP SSTORE POP POP JUMP JUMPDEST PUSH1 0x0 DUP1 SLOAD SWAP1 PUSH2 0x100 EXP SWAP1 DIV PUSH20 0xFFFFFFFFFFFFFFFFFFFFFFFFFFFFFFFFFFFFFFFF AND PUSH20 0xFFFFFFFFFFFFFFFFFFFFFFFFFFFFFFFFFFFFFFFF AND CALLER PUSH20 0xFFFFFFFFFFFFFFFFFFFFFFFFFFFFFFFFFFFFFFFF AND EQ PUSH2 0x3D3 JUMPI PUSH1 0x40 MLOAD PUSH32 0x8C379A000000000000000000000000000000000000000000000000000000000 DUP2 MSTORE PUSH1 0x4 ADD PUSH2 0x3CA SWAP1 PUSH2 0x7E3 JUMP JUMPDEST PUSH1 0x40 MLOAD DUP1 SWAP2 SUB SWAP1 REVERT JUMPDEST PUSH1 0x1 DUP2 DUP2 SLOAD DUP2 LT PUSH2 0x3E7 JUMPI PUSH2 0x3E6 PUSH2 0x6E2 JUMP JUMPDEST JUMPDEST SWAP1 PUSH1 0x0 MSTORE PUSH1 0x20 PUSH1 0x0 KECCAK256 SWAP1 PUSH1 0x2 MUL ADD PUSH1 0x1 ADD DUP3 SWAP1 DUP1 PUSH1 0x1 DUP2 SLOAD ADD DUP1 DUP3 SSTORE DUP1 SWAP2 POP POP PUSH1 0x1 SWAP1 SUB SWAP1 PUSH1 0x0 MSTORE PUSH1 0x20 PUSH1 0x0 KECCAK256 ADD PUSH1 0x0 SWAP1 SWAP2 SWAP1 SWAP2 SWAP1 SWAP2 POP SSTORE POP POP JUMP JUMPDEST PUSH1 0x0 DUP1 REVERT JUMPDEST PUSH1 0x0 DUP1 REVERT JUMPDEST PUSH1 0x0 DUP2 SWAP1 POP SWAP2 SWAP1 POP JUMP JUMPDEST PUSH2 0x440 DUP2 PUSH2 0x42D JUMP JUMPDEST DUP2 EQ PUSH2 0x44B JUMPI PUSH1 0x0 DUP1 REVERT JUMPDEST POP JUMP JUMPDEST PUSH1 0x0 DUP2 CALLDATALOAD SWAP1 POP PUSH2 0x45D DUP2 PUSH2 0x437 JUMP JUMPDEST SWAP3 SWAP2 POP POP JUMP JUMPDEST PUSH1 0x0 PUSH1 0x20 DUP3 DUP5 SUB SLT ISZERO PUSH2 0x479 JUMPI PUSH2 0x478 PUSH2 0x423 JUMP JUMPDEST JUMPDEST PUSH1 0x0 PUSH2 0x487 DUP5 DUP3 DUP6 ADD PUSH2 0x44E JUMP JUMPDEST SWAP2 POP POP SWAP3 SWAP2 POP POP JUMP JUMPDEST PUSH1 0x0 DUP2 MLOAD SWAP1 POP SWAP2 SWAP1 POP JUMP JUMPDEST PUSH1 0x0 DUP3 DUP3 MSTORE PUSH1 0x20 DUP3 ADD SWAP1 POP SWAP3 SWAP2 POP POP JUMP JUMPDEST PUSH1 0x0 DUP2 SWAP1 POP PUSH1 0x20 DUP3 ADD SWAP1 POP SWAP2 SWAP1 POP JUMP JUMPDEST PUSH2 0x4C5 DUP2 PUSH2 0x42D JUMP JUMPDEST DUP3 MSTORE POP POP JUMP JUMPDEST PUSH1 0x0 PUSH2 0x4D7 DUP4 DUP4 PUSH2 0x4BC JUMP JUMPDEST PUSH1 0x20 DUP4 ADD SWAP1 POP SWAP3 SWAP2 POP POP JUMP JUMPDEST PUSH1 0x0 PUSH1 0x20 DUP3 ADD SWAP1 POP SWAP2 SWAP1 POP JUMP JUMPDEST PUSH1 0x0 PUSH2 0x4FB DUP3 PUSH2 0x490 JUMP JUMPDEST PUSH2 0x505 DUP2 DUP6 PUSH2 0x49B JUMP JUMPDEST SWAP4 POP PUSH2 0x510 DUP4 PUSH2 0x4AC JUMP JUMPDEST DUP1 PUSH1 0x0 JUMPDEST DUP4 DUP2 LT ISZERO PUSH2 0x541 JUMPI DUP2 MLOAD PUSH2 0x528 DUP9 DUP3 PUSH2 0x4CB JUMP JUMPDEST SWAP8 POP PUSH2 0x533 DUP4 PUSH2 0x4E3 JUMP JUMPDEST SWAP3 POP POP PUSH1 0x1 DUP2 ADD SWAP1 POP PUSH2 0x514 JUMP JUMPDEST POP DUP6 SWAP4 POP POP POP POP SWAP3 SWAP2 POP POP JUMP JUMPDEST PUSH1 0x0 PUSH1 0x20 DUP3 ADD SWAP1 POP DUP2 DUP2 SUB PUSH1 0x0 DUP4 ADD MSTORE PUSH2 0x568 DUP2 DUP5 PUSH2 0x4F0 JUMP JUMPDEST SWAP1 POP SWAP3 SWAP2 POP POP JUMP JUMPDEST PUSH1 0x0 DUP2 MLOAD SWAP1 POP SWAP2 SWAP1 POP JUMP JUMPDEST PUSH1 0x0 DUP3 DUP3 MSTORE PUSH1 0x20 DUP3 ADD SWAP1 POP SWAP3 SWAP2 POP POP JUMP JUMPDEST PUSH1 0x0 JUMPDEST DUP4 DUP2 LT ISZERO PUSH2 0x5AA JUMPI DUP1 DUP3 ADD MLOAD DUP2 DUP5 ADD MSTORE PUSH1 0x20 DUP2 ADD SWAP1 POP PUSH2 0x58F JUMP JUMPDEST PUSH1 0x0 DUP5 DUP5 ADD MSTORE POP POP POP POP JUMP JUMPDEST PUSH1 0x0 PUSH1 0x1F NOT PUSH1 0x1F DUP4 ADD AND SWAP1 POP SWAP2 SWAP1 POP JUMP JUMPDEST PUSH1 0x0 PUSH2 0x5D2 DUP3 PUSH2 0x570 JUMP JUMPDEST PUSH2 0x5DC DUP2 DUP6 PUSH2 0x57B JUMP JUMPDEST SWAP4 POP PUSH2 0x5EC DUP2 DUP6 PUSH1 0x20 DUP7 ADD PUSH2 0x58C JUMP JUMPDEST PUSH2 0x5F5 DUP2 PUSH2 0x5B6 JUMP JUMPDEST DUP5 ADD SWAP2 POP POP SWAP3 SWAP2 POP POP JUMP JUMPDEST PUSH1 0x0 PUSH1 0x20 DUP3 ADD SWAP1 POP DUP2 DUP2 SUB PUSH1 0x0 DUP4 ADD MSTORE PUSH2 0x61A DUP2 DUP5 PUSH2 0x5C7 JUMP JUMPDEST SWAP1 POP SWAP3 SWAP2 POP POP JUMP JUMPDEST PUSH1 0x0 DUP1 REVERT JUMPDEST PUSH1 0x0 PUSH1 0x40 DUP3 DUP5 SUB SLT ISZERO PUSH2 0x63D JUMPI PUSH2 0x63C PUSH2 0x622 JUMP JUMPDEST JUMPDEST DUP2 SWAP1 POP SWAP3 SWAP2 POP POP JUMP JUMPDEST PUSH1 0x0 DUP1 PUSH1 0x40 DUP4 DUP6 SUB SLT ISZERO PUSH2 0x65D JUMPI PUSH2 0x65C PUSH2 0x423 JUMP JUMPDEST JUMPDEST PUSH1 0x0 DUP4 ADD CALLDATALOAD PUSH8 0xFFFFFFFFFFFFFFFF DUP2 GT ISZERO PUSH2 0x67B JUMPI PUSH2 0x67A PUSH2 0x428 JUMP JUMPDEST JUMPDEST PUSH2 0x687 DUP6 DUP3 DUP7 ADD PUSH2 0x627 JUMP JUMPDEST SWAP3 POP POP PUSH1 0x20 PUSH2 0x698 DUP6 DUP3 DUP7 ADD PUSH2 0x44E JUMP JUMPDEST SWAP2 POP POP SWAP3 POP SWAP3 SWAP1 POP JUMP JUMPDEST PUSH1 0x0 DUP1 PUSH1 0x40 DUP4 DUP6 SUB SLT ISZERO PUSH2 0x6B9 JUMPI PUSH2 0x6B8 PUSH2 0x423 JUMP JUMPDEST JUMPDEST PUSH1 0x0 PUSH2 0x6C7 DUP6 DUP3 DUP7 ADD PUSH2 0x44E JUMP JUMPDEST SWAP3 POP POP PUSH1 0x20 PUSH2 0x6D8 DUP6 DUP3 DUP7 ADD PUSH2 0x44E JUMP JUMPDEST SWAP2 POP POP SWAP3 POP SWAP3 SWAP1 POP JUMP JUMPDEST PUSH32 0x4E487B7100000000000000000000000000000000000000000000000000000000 PUSH1 0x0 MSTORE PUSH1 0x32 PUSH1 0x4 MSTORE PUSH1 0x24 PUSH1 0x0 REVERT JUMPDEST PUSH32 0x4E487B7100000000000000000000000000000000000000000000000000000000 PUSH1 0x0 MSTORE PUSH1 0x22 PUSH1 0x4 MSTORE PUSH1 0x24 PUSH1 0x0 REVERT JUMPDEST PUSH1 0x0 PUSH1 0x2 DUP3 DIV SWAP1 POP PUSH1 0x1 DUP3 AND DUP1 PUSH2 0x758 JUMPI PUSH1 0x7F DUP3 AND SWAP2 POP JUMPDEST PUSH1 0x20 DUP3 LT DUP2 SUB PUSH2 0x76B JUMPI PUSH2 0x76A PUSH2 0x711 JUMP JUMPDEST JUMPDEST POP SWAP2 SWAP1 POP JUMP JUMPDEST PUSH32 0x4F6E6C79207468652044414F20636F6E74726163742063616E207075626C6973 PUSH1 0x0 DUP3 ADD MSTORE PUSH32 0x68206E657720646F63756D656E74732E00000000000000000000000000000000 PUSH1 0x20 DUP3 ADD MSTORE POP JUMP JUMPDEST PUSH1 0x0 PUSH2 0x7CD PUSH1 0x30 DUP4 PUSH2 0x57B JUMP JUMPDEST SWAP2 POP PUSH2 0x7D8 DUP3 PUSH2 0x771 JUMP JUMPDEST PUSH1 0x40 DUP3 ADD SWAP1 POP SWAP2 SWAP1 POP JUMP JUMPDEST PUSH1 0x0 PUSH1 0x20 DUP3 ADD SWAP1 POP DUP2 DUP2 SUB PUSH1 0x0 DUP4 ADD MSTORE PUSH2 0x7FC DUP2 PUSH2 0x7C0 JUMP JUMPDEST SWAP1 POP SWAP2 SWAP1 POP JUMP JUMPDEST PUSH1 0x0 DUP1 REVERT JUMPDEST PUSH1 0x0 DUP1 REVERT JUMPDEST PUSH1 0x0 DUP1 REVERT JUMPDEST PUSH1 0x0 DUP1 DUP4 CALLDATALOAD PUSH1 0x1 PUSH1 0x20 SUB DUP5 CALLDATASIZE SUB SUB DUP2 SLT PUSH2 0x82F JUMPI PUSH2 0x82E PUSH2 0x803 JUMP JUMPDEST JUMPDEST DUP1 DUP5 ADD SWAP3 POP DUP3 CALLDATALOAD SWAP2 POP PUSH8 0xFFFFFFFFFFFFFFFF DUP3 GT ISZERO PUSH2 0x851 JUMPI PUSH2 0x850 PUSH2 0x808 JUMP JUMPDEST JUMPDEST PUSH1 0x20 DUP4 ADD SWAP3 POP PUSH1 0x1 DUP3 MUL CALLDATASIZE SUB DUP4 SGT ISZERO PUSH2 0x86D JUMPI PUSH2 0x86C PUSH2 0x80D JUMP JUMPDEST JUMPDEST POP SWAP3 POP SWAP3 SWAP1 POP JUMP JUMPDEST PUSH1 0x0 DUP3 SWAP1 POP SWAP3 SWAP2 POP POP JUMP JUMPDEST PUSH32 0x4E487B7100000000000000000000000000000000000000000000000000000000 PUSH1 0x0 MSTORE PUSH1 0x41 PUSH1 0x4 MSTORE PUSH1 0x24 PUSH1 0x0 REVERT JUMPDEST PUSH1 0x0 DUP2 SWAP1 POP DUP2 PUSH1 0x0 MSTORE PUSH1 0x20 PUSH1 0x0 KECCAK256 SWAP1 POP SWAP2 SWAP1 POP JUMP JUMPDEST PUSH1 0x0 PUSH1 0x20 PUSH1 0x1F DUP4 ADD DIV SWAP1 POP SWAP2 SWAP1 POP JUMP JUMPDEST PUSH1 0x0 DUP3 DUP3 SHL SWAP1 POP SWAP3 SWAP2 POP POP JUMP JUMPDEST PUSH1 0x0 PUSH1 0x8 DUP4 MUL PUSH2 0x911 PUSH32 0xFFFFFFFFFFFFFFFFFFFFFFFFFFFFFFFFFFFFFFFFFFFFFFFFFFFFFFFFFFFFFFFF DUP3 PUSH2 0x8D4 JUMP JUMPDEST PUSH2 0x91B DUP7 DUP4 PUSH2 0x8D4 JUMP JUMPDEST SWAP6 POP DUP1 NOT DUP5 AND SWAP4 POP DUP1 DUP7 AND DUP5 OR SWAP3 POP POP POP SWAP4 SWAP3 POP POP POP JUMP JUMPDEST PUSH1 0x0 DUP2 SWAP1 POP SWAP2 SWAP1 POP JUMP JUMPDEST PUSH1 0x0 PUSH2 0x958 PUSH2 0x953 PUSH2 0x94E DUP5 PUSH2 0x42D JUMP JUMPDEST PUSH2 0x933 JUMP JUMPDEST PUSH2 0x42D JUMP JUMPDEST SWAP1 POP SWAP2 SWAP1 POP JUMP JUMPDEST PUSH1 0x0 DUP2 SWAP1 POP SWAP2 SWAP1 POP JUMP JUMPDEST PUSH2 0x972 DUP4 PUSH2 0x93D JUMP JUMPDEST PUSH2 0x986 PUSH2 0x97E DUP3 PUSH2 0x95F JUMP JUMPDEST DUP5 DUP5 SLOAD PUSH2 0x8E1 JUMP JUMPDEST DUP3 SSTORE POP POP POP POP JUMP JUMPDEST PUSH1 0x0 SWAP1 JUMP JUMPDEST PUSH2 0x99B PUSH2 0x98E JUMP JUMPDEST PUSH2 0x9A6 DUP2 DUP5 DUP5 PUSH2 0x969 JUMP JUMPDEST POP POP POP JUMP JUMPDEST JUMPDEST DUP2 DUP2 LT ISZERO PUSH2 0x9CA JUMPI PUSH2 0x9BF PUSH1 0x0 DUP3 PUSH2 0x993 JUMP JUMPDEST PUSH1 0x1 DUP2 ADD SWAP1 POP PUSH2 0x9AC JUMP JUMPDEST POP POP JUMP JUMPDEST PUSH1 0x1F DUP3 GT ISZERO PUSH2 0xA0F JUMPI PUSH2 0x9E0 DUP2 PUSH2 0x8AF JUMP JUMPDEST PUSH2 0x9E9 DUP5 PUSH2 0x8C4 JUMP JUMPDEST DUP2 ADD PUSH1 0x20 DUP6 LT ISZERO PUSH2 0x9F8 JUMPI DUP2 SWAP1 POP JUMPDEST PUSH2 0xA0C PUSH2 0xA04 DUP6 PUSH2 0x8C4 JUMP JUMPDEST DUP4 ADD DUP3 PUSH2 0x9AB JUMP JUMPDEST POP POP JUMPDEST POP POP POP JUMP JUMPDEST PUSH1 0x0 DUP3 DUP3 SHR SWAP1 POP SWAP3 SWAP2 POP POP JUMP JUMPDEST PUSH1 0x0 PUSH2 0xA32 PUSH1 0x0 NOT DUP5 PUSH1 0x8 MUL PUSH2 0xA14 JUMP JUMPDEST NOT DUP1 DUP4 AND SWAP2 POP POP SWAP3 SWAP2 POP POP JUMP JUMPDEST PUSH1 0x0 PUSH2 0xA4B DUP4 DUP4 PUSH2 0xA21 JUMP JUMPDEST SWAP2 POP DUP3 PUSH1 0x2 MUL DUP3 OR SWAP1 POP SWAP3 SWAP2 POP POP JUMP JUMPDEST PUSH2 0xA65 DUP4 DUP4 PUSH2 0x875 JUMP JUMPDEST PUSH8 0xFFFFFFFFFFFFFFFF DUP2 GT ISZERO PUSH2 0xA7E JUMPI PUSH2 0xA7D PUSH2 0x880 JUMP JUMPDEST JUMPDEST PUSH2 0xA88 DUP3 SLOAD PUSH2 0x740 JUMP JUMPDEST PUSH2 0xA93 DUP3 DUP3 DUP6 PUSH2 0x9CE JUMP JUMPDEST PUSH1 0x0 PUSH1 0x1F DUP4 GT PUSH1 0x1 DUP2 EQ PUSH2 0xAC2 JUMPI PUSH1 0x0 DUP5 ISZERO PUSH2 0xAB0 JUMPI DUP3 DUP8 ADD CALLDATALOAD SWAP1 POP JUMPDEST PUSH2 0xABA DUP6 DUP3 PUSH2 0xA3F JUMP JUMPDEST DUP7 SSTORE POP PUSH2 0xB22 JUMP JUMPDEST PUSH1 0x1F NOT DUP5 AND PUSH2 0xAD0 DUP7 PUSH2 0x8AF JUMP JUMPDEST PUSH1 0x0 JUMPDEST DUP3 DUP2 LT ISZERO PUSH2 0xAF8 JUMPI DUP5 DUP10 ADD CALLDATALOAD DUP3 SSTORE PUSH1 0x1 DUP3 ADD SWAP2 POP PUSH1 0x20 DUP6 ADD SWAP5 POP PUSH1 0x20 DUP2 ADD SWAP1 POP PUSH2 0xAD3 JUMP JUMPDEST DUP7 DUP4 LT ISZERO PUSH2 0xB15 JUMPI DUP5 DUP10 ADD CALLDATALOAD PUSH2 0xB11 PUSH1 0x1F DUP10 AND DUP3 PUSH2 0xA21 JUMP JUMPDEST DUP4 SSTORE POP JUMPDEST PUSH1 0x1 PUSH1 0x2 DUP9 MUL ADD DUP9 SSTORE POP POP POP JUMPDEST POP POP POP POP POP POP POP JUMP JUMPDEST PUSH2 0xB36 DUP4 DUP4 DUP4 PUSH2 0xA5B JUMP JUMPDEST POP POP POP JUMP JUMPDEST PUSH1 0x0 DUP1 DUP4 CALLDATALOAD PUSH1 0x1 PUSH1 0x20 SUB DUP5 CALLDATASIZE SUB SUB DUP2 SLT PUSH2 0xB58 JUMPI PUSH2 0xB57 PUSH2 0x803 JUMP JUMPDEST JUMPDEST DUP1 DUP5 ADD SWAP3 POP DUP3 CALLDATALOAD SWAP2 POP PUSH8 0xFFFFFFFFFFFFFFFF DUP3 GT ISZERO PUSH2 0xB7A JUMPI PUSH2 0xB79 PUSH2 0x808 JUMP JUMPDEST JUMPDEST PUSH1 0x20 DUP4 ADD SWAP3 POP PUSH1 0x20 DUP3 MUL CALLDATASIZE SUB DUP4 SGT ISZERO PUSH2 0xB96 JUMPI PUSH2 0xB95 PUSH2 0x80D JUMP JUMPDEST JUMPDEST POP SWAP3 POP SWAP3 SWAP1 POP JUMP JUMPDEST PUSH1 0x0 DUP2 SLOAD SWAP1 POP SWAP2 SWAP1 POP JUMP JUMPDEST PUSH32 0x4E487B7100000000000000000000000000000000000000000000000000000000 PUSH1 0x0 MSTORE PUSH1 0x11 PUSH1 0x4 MSTORE PUSH1 0x24 PUSH1 0x0 REVERT JUMPDEST PUSH1 0x0 DUP2 SWAP1 POP PUSH1 0x1 DUP1 PUSH1 0x1 SUB DUP4 ADD DIV SWAP1 POP SWAP2 SWAP1 POP JUMP JUMPDEST PUSH1 0x0 DUP2 SWAP1 POP DUP2 PUSH1 0x0 MSTORE PUSH1 0x20 PUSH1 0x0 KECCAK256 SWAP1 POP SWAP2 SWAP1 POP JUMP JUMPDEST JUMPDEST DUP2 DUP2 LT ISZERO PUSH2 0xC21 JUMPI PUSH2 0xC16 PUSH1 0x0 DUP3 PUSH2 0x993 JUMP JUMPDEST PUSH1 0x1 DUP2 ADD SWAP1 POP PUSH2 0xC03 JUMP JUMPDEST POP POP JUMP JUMPDEST DUP2 DUP4 LT ISZERO PUSH2 0xC5E JUMPI PUSH2 0xC36 DUP3 PUSH2 0xBD8 JUMP JUMPDEST PUSH2 0xC3F DUP5 PUSH2 0xBD8 JUMP JUMPDEST PUSH2 0xC48 DUP4 PUSH2 0xBED JUMP JUMPDEST DUP2 DUP2 ADD DUP4 DUP3 ADD PUSH2 0xC58 DUP2 DUP4 PUSH2 0xC02 JUMP JUMPDEST POP POP POP POP POP JUMPDEST POP POP POP JUMP JUMPDEST PUSH9 0x10000000000000000 DUP3 GT ISZERO PUSH2 0xC7D JUMPI PUSH2 0xC7C PUSH2 0x880 JUMP JUMPDEST JUMPDEST PUSH2 0xC86 DUP2 PUSH2 0xB9E JUMP JUMPDEST DUP3 DUP3 SSTORE PUSH2 0xC94 DUP4 DUP3 DUP5 PUSH2 0xC25 JUMP JUMPDEST POP POP POP JUMP JUMPDEST PUSH1 0x0 DUP3 SWAP1 POP SWAP3 SWAP2 POP POP JUMP JUMPDEST PUSH1 0x0 DUP2 CALLDATALOAD PUSH2 0xCB1 DUP2 PUSH2 0x437 JUMP JUMPDEST DUP1 SWAP2 POP POP SWAP2 SWAP1 POP JUMP JUMPDEST PUSH1 0x0 DUP2 SWAP1 POP SWAP2 SWAP1 POP JUMP JUMPDEST PUSH2 0xCCE DUP4 DUP4 PUSH2 0xC99 JUMP JUMPDEST PUSH8 0xFFFFFFFFFFFFFFFF DUP2 GT ISZERO PUSH2 0xCE7 JUMPI PUSH2 0xCE6 PUSH2 0x880 JUMP JUMPDEST JUMPDEST PUSH2 0xCF1 DUP2 DUP4 PUSH2 0xC63 JUMP JUMPDEST PUSH2 0xCFA DUP4 PUSH2 0xCBA JUMP JUMPDEST PUSH2 0xD03 DUP4 PUSH2 0xBED JUMP JUMPDEST PUSH1 0x1 DUP4 DIV PUSH1 0x0 JUMPDEST DUP2 DUP2 LT ISZERO PUSH2 0xD42 JUMPI PUSH1 0x0 PUSH2 0xD1D DUP6 PUSH2 0xCA4 JUMP JUMPDEST PUSH2 0xD26 DUP2 PUSH2 0x95F JUMP JUMPDEST DUP1 SWAP3 POP PUSH1 0x20 DUP8 ADD SWAP7 POP POP POP DUP1 DUP3 DUP6 ADD SSTORE POP PUSH1 0x1 DUP2 ADD SWAP1 POP PUSH2 0xD0A JUMP JUMPDEST POP POP POP POP POP POP POP POP JUMP JUMPDEST PUSH2 0xD57 DUP4 DUP4 DUP4 PUSH2 0xCC4 JUMP JUMPDEST POP POP POP JUMP JUMPDEST PUSH1 0x0 DUP2 ADD PUSH1 0x0 DUP4 ADD PUSH2 0xD6E DUP2 DUP6 PUSH2 0x812 JUMP JUMPDEST PUSH2 0xD79 DUP2 DUP4 DUP7 PUSH2 0xB2B JUMP JUMPDEST POP POP POP POP PUSH1 0x1 DUP2 ADD PUSH1 0x20 DUP4 ADD PUSH2 0xD8F DUP2 DUP6 PUSH2 0xB3B JUMP JUMPDEST PUSH2 0xD9A DUP2 DUP4 DUP7 PUSH2 0xD4C JUMP JUMPDEST POP POP POP POP POP POP JUMP JUMPDEST PUSH2 0xDAC DUP3 DUP3 PUSH2 0xD5C JUMP JUMPDEST POP POP JUMP JUMPDEST PUSH1 0x0 PUSH2 0xDBB DUP3 PUSH2 0x42D JUMP JUMPDEST SWAP2 POP PUSH2 0xDC6 DUP4 PUSH2 0x42D JUMP JUMPDEST SWAP3 POP DUP3 DUP3 SUB SWAP1 POP DUP2 DUP2 GT ISZERO PUSH2 0xDDE JUMPI PUSH2 0xDDD PUSH2 0xBA9 JUMP JUMPDEST JUMPDEST SWAP3 SWAP2 POP POP JUMP INVALID LOG2 PUSH5 0x6970667358 0x22 SLT KECCAK256 0x2E SELFBALANCE SMOD 0xDC SWAP16 PUSH7 0xFCC81492802FC0 0xC4 SHR 0xEF 0x4B AND GASLIMIT SWAP9 SIGNEXTEND PUSH15 0xB7191FF12693F89D793064736F6C63 NUMBER STOP ADDMOD SHR STOP CALLER "},"methodIdentifiers":{"getReferences(uint256)":"3cfc7ae2","linkDocument(uint256,uint256)":"ac5ebbd0","publishDocument((string,uint256[]),uint256)":"66ed35e5","readDocument(uint256)":"6685f12c"}}}}}