{
  "_format": "hh-sol-artifact-1",
  "contractName": "DAOGateway",
  "sourceName": "contracts/DAOGateway.sol",
  "abi": [
    {
      "inputs": [],
      "stateMutability": "nonpayable",
      "type": "constructor"
    },
    {
      "inputs": [
        {
          "internalType": "uint256",
          "name": "index",
          "type": "uint256"
        }
      ],
      "name": "getReferences",
      "outputs": [
        {
          "internalType": "uint256[]",
          "name": "refs",
          "type": "uint256[]"
        }
      ],
      "stateMutability": "view",
      "type": "function"
    },
    {
      "inputs": [
        {
          "internalType": "uint256",
          "name": "childIndex",
          "type": "uint256"
        },
        {
          "internalType": "uint256",
          "name": "parentIndex",
          "type": "uint256"
        }
      ],
      "name": "linkDocument",
      "outputs": [],
      "stateMutability": "nonpayable",
      "type": "function"
    },
    {
      "inputs": [
        {
          "components": [
            {
              "internalType": "string",
              "name": "contents",
              "type": "string"
            },
            {
              "internalType": "uint256[]",
              "name": "references",
              "type": "uint256[]"
            }
          ],
          "internalType": "struct DAOGateway.Document",
          "name": "doc",
          "type": "tuple"
        },
        {
          "internalType": "uint256",
          "name": "parentIndex",
          "type": "uint256"
        }
      ],
      "name": "publishDocument",
      "outputs": [],
      "stateMutability": "nonpayable",
      "type": "function"
    },
    {
      "inputs": [
        {
          "internalType": "uint256",
          "name": "index",
          "type": "uint256"
        }
      ],
      "name": "readDocument",
      "outputs": [
        {
          "internalType": "string",
          "name": "text",
          "type": "string"
        }
      ],
      "stateMutability": "view",
      "type": "function"
    }
  ],
  "bytecode": "0x6080604052348015600f57600080fd5b50336000806101000a81548173ffffffffffffffffffffffffffffffffffffffff021916908373ffffffffffffffffffffffffffffffffffffffff160217905550610e1a8061005f6000396000f3fe608060405234801561001057600080fd5b506004361061004c5760003560e01c80633cfc7ae2146100515780636685f12c1461008157806366ed35e5146100b1578063ac5ebbd0146100cd575b600080fd5b61006b60048036038101906100669190610463565b6100e9565b604051610078919061054e565b60405180910390f35b61009b60048036038101906100969190610463565b610166565b6040516100a89190610600565b60405180910390f35b6100cb60048036038101906100c69190610646565b61021d565b005b6100e760048036038101906100e291906106a2565b610345565b005b6060600182815481106100ff576100fe6106e2565b5b906000526020600020906002020160010180548060200260200160405190810160405280929190818152602001828054801561015a57602002820191906000526020600020905b815481526020019060010190808311610146575b50505050509050919050565b60606001828154811061017c5761017b6106e2565b5b9060005260206000209060020201600001805461019890610740565b80601f01602080910402602001604051908101604052809291908181526020018280546101c490610740565b80156102115780601f106101e657610100808354040283529160200191610211565b820191906000526020600020905b8154815290600101906020018083116101f457829003601f168201915b50505050509050919050565b60008054906101000a900473ffffffffffffffffffffffffffffffffffffffff1673ffffffffffffffffffffffffffffffffffffffff163373ffffffffffffffffffffffffffffffffffffffff16146102ab576040517f08c379a00000000000000000000000000000000000000000000000000000000081526004016102a2906107e3565b60405180910390fd5b600182908060018154018082558091505060019003906000526020600020906002020160009091909190915081816102e39190610da2565b5050600181815481106102f9576102f86106e2565b5b90600052602060002090600202016001016001808054905061031b9190610db0565b90806001815401808255809150506001900390600052602060002001600090919091909150555050565b60008054906101000a900473ffffffffffffffffffffffffffffffffffffffff1673ffffffffffffffffffffffffffffffffffffffff163373ffffffffffffffffffffffffffffffffffffffff16146103d3576040517f08c379a00000000000000000000000000000000000000000000000000000000081526004016103ca906107e3565b60405180910390fd5b600181815481106103e7576103e66106e2565b5b90600052602060002090600202016001018290806001815401808255809150506001900390600052602060002001600090919091909150555050565b600080fd5b600080fd5b6000819050919050565b6104408161042d565b811461044b57600080fd5b50565b60008135905061045d81610437565b92915050565b60006020828403121561047957610478610423565b5b60006104878482850161044e565b91505092915050565b600081519050919050565b600082825260208201905092915050565b6000819050602082019050919050565b6104c58161042d565b82525050565b60006104d783836104bc565b60208301905092915050565b6000602082019050919050565b60006104fb82610490565b610505818561049b565b9350610510836104ac565b8060005b8381101561054157815161052888826104cb565b9750610533836104e3565b925050600181019050610514565b5085935050505092915050565b6000602082019050818103600083015261056881846104f0565b905092915050565b600081519050919050565b600082825260208201905092915050565b60005b838110156105aa57808201518184015260208101905061058f565b60008484015250505050565b6000601f19601f8301169050919050565b60006105d282610570565b6105dc818561057b565b93506105ec81856020860161058c565b6105f5816105b6565b840191505092915050565b6000602082019050818103600083015261061a81846105c7565b905092915050565b600080fd5b60006040828403121561063d5761063c610622565b5b81905092915050565b6000806040838503121561065d5761065c610423565b5b600083013567ffffffffffffffff81111561067b5761067a610428565b5b61068785828601610627565b92505060206106988582860161044e565b9150509250929050565b600080604083850312156106b9576106b8610423565b5b60006106c78582860161044e565b92505060206106d88582860161044e565b9150509250929050565b7f4e487b7100000000000000000000000000000000000000000000000000000000600052603260045260246000fd5b7f4e487b7100000000000000000000000000000000000000000000000000000000600052602260045260246000fd5b6000600282049050600182168061075857607f821691505b60208210810361076b5761076a610711565b5b50919050565b7f4f6e6c79207468652044414f20636f6e74726163742063616e207075626c697360008201527f68206e657720646f63756d656e74732e00000000000000000000000000000000602082015250565b60006107cd60308361057b565b91506107d882610771565b604082019050919050565b600060208201905081810360008301526107fc816107c0565b9050919050565b600080fd5b600080fd5b600080fd5b6000808335600160200384360303811261082f5761082e610803565b5b80840192508235915067ffffffffffffffff82111561085157610850610808565b5b60208301925060018202360383131561086d5761086c61080d565b5b509250929050565b600082905092915050565b7f4e487b7100000000000000000000000000000000000000000000000000000000600052604160045260246000fd5b60008190508160005260206000209050919050565b60006020601f8301049050919050565b600082821b905092915050565b6000600883026109117fffffffffffffffffffffffffffffffffffffffffffffffffffffffffffffffff826108d4565b61091b86836108d4565b95508019841693508086168417925050509392505050565b6000819050919050565b600061095861095361094e8461042d565b610933565b61042d565b9050919050565b6000819050919050565b6109728361093d565b61098661097e8261095f565b8484546108e1565b825550505050565b600090565b61099b61098e565b6109a6818484610969565b505050565b5b818110156109ca576109bf600082610993565b6001810190506109ac565b5050565b601f821115610a0f576109e0816108af565b6109e9846108c4565b810160208510156109f8578190505b610a0c610a04856108c4565b8301826109ab565b50505b505050565b600082821c905092915050565b6000610a3260001984600802610a14565b1980831691505092915050565b6000610a4b8383610a21565b9150826002028217905092915050565b610a658383610875565b67ffffffffffffffff811115610a7e57610a7d610880565b5b610a888254610740565b610a938282856109ce565b6000601f831160018114610ac25760008415610ab0578287013590505b610aba8582610a3f565b865550610b22565b601f198416610ad0866108af565b60005b82811015610af857848901358255600182019150602085019450602081019050610ad3565b86831015610b155784890135610b11601f891682610a21565b8355505b6001600288020188555050505b50505050505050565b610b36838383610a5b565b505050565b60008083356001602003843603038112610b5857610b57610803565b5b80840192508235915067ffffffffffffffff821115610b7a57610b79610808565b5b602083019250602082023603831315610b9657610b9561080d565b5b509250929050565b600081549050919050565b7f4e487b7100000000000000000000000000000000000000000000000000000000600052601160045260246000fd5b60008190506001806001038301049050919050565b60008190508160005260206000209050919050565b5b81811015610c2157610c16600082610993565b600181019050610c03565b5050565b81831015610c5e57610c3682610bd8565b610c3f84610bd8565b610c4883610bed565b818101838201610c588183610c02565b50505050505b505050565b68010000000000000000821115610c7d57610c7c610880565b5b610c8681610b9e565b828255610c94838284610c25565b505050565b600082905092915050565b60008135610cb181610437565b80915050919050565b6000819050919050565b610cce8383610c99565b67ffffffffffffffff811115610ce757610ce6610880565b5b610cf18183610c63565b610cfa83610cba565b610d0383610bed565b6001830460005b81811015610d42576000610d1d85610ca4565b610d268161095f565b8092506020870196505050808285015550600181019050610d0a565b5050505050505050565b610d57838383610cc4565b505050565b6000810160008301610d6e8185610812565b610d79818386610b2b565b505050506001810160208301610d8f8185610b3b565b610d9a818386610d4c565b505050505050565b610dac8282610d5c565b5050565b6000610dbb8261042d565b9150610dc68361042d565b9250828203905081811115610dde57610ddd610ba9565b5b9291505056fea26469706673582212202e4707dc9f66fcc81492802fc0c41cef4b1645980b6eb7191ff12693f89d793064736f6c634300081c0033",
  "linkReferences": {},
  "deployedLinkReferences": {}
}